:020000040000FA
:04000000C5EF3DF01B
:107B4F00FF93908190C80EE82EFED71200819010FF
:107B5F000E016E940EE82EFED7012EFCD700D01228
:107B6F00000D6E000E026E000E036E0DC004F00CC1
:107B7F00C005F0000EFCEC3DF012004F0EF66E7BD0
:107B8F000EF76E000EF86E0900F5CF1CF01B6A1A87
:107B9F006A000194EF3EF0126E000E0C6E1204B8E4
:107BAF00EC3DF010C002F011C003F00EC004F00164
:107BBF000E056E0F50FCEC3DF01200116E010E0C15
:107BCF006E080EB8EC3DF0000E0C6E1104B8EC3DD3
:107BDF00F00FC002F010C003F0010E046E010E058D
:107BEF006E0E50FCEC3DF01200066E000E076E801C
:107BFF00EF3EF002C00BF0000E086E0BBE0AEF3E18
:107C0F00F00CEF3EF015EF3EF0818000D000D081F8
:107C1F0090030EE82EFED71FEF3EF0818000D000BC
:107C2F00D000D000D0819000D000D000D000F00B59
:107C3F00500B240B6E082A070E086429EF3EF02B19
:107C4F00EF3EF005EF3EF006C00BF0000E096E0B95
:107C5F00BE34EF3EF036EF3EF03FEF3EF081800056
:107C6F00D000D08190030EE82EFED749EF3EF08171
:107C7F008000D000D000D000D0819000D000D00084
:107C8F00D000F00B500B240B6E092A070E0964531A
:107C9F00EF3EF055EF3EF02FEF3EF003C00BF0003C
:107CAF000E0A6E0BBE5EEF3EF060EF3EF069EF3EE8
:107CBF00F0818000D000D08190030EE82EFED773A4
:107CCF00EF3EF0818000D000D000D000D081900036
:107CDF00D000D000D000F00B500B240B6E0A2A07F7
:107CEF000E0A647DEF3EF07FEF3EF059EF3EF00756
:107CFF002A0450075CD8A087EF3EF089EF3EF001D1
:107D0F00EF3EF00504D8A48FEF3EF091EF3EF093D5
:107D1F00EF3EF0AEEC3DF01200A8EC3DF0010E0C82
:107D2F006E080EB8EC3DF0080E0E6EFF0E0F6E00D3
:107D3F000E106E000E116E050ED3EC3DF0100E14EA
:107D4F006E390E136E0E0EE82EFED7132EFCD714BF
:107D5F002EFAD7010E0C6E080EB8EC3DF0040E0E85
:107D6F006EFF0E0F6E000E106E000E116E010ED311
:107D7F00EC3DF0100E146E390E136E0E0EE82EFE43
:107D8F00D7132EFCD7142EFAD7010E0C6E080EB88F
:107D9F00EC3DF0000E166E1BC00EF01CC00FF01A5B
:107DAF00C010F01628E5EC3DF0070E146E170E13F9
:107DBF006E6A0EE82EFED7132EFCD7142EFAD700BC
:107DCF00D0162A070E1664EFEF3EF0F1EF3EF0D318
:107DDF00EF3EF0070E176E010E0C6E080EB8EC3D5D
:107DEF00F0000E0C6E1704B8EC3DF01CC002F01A38
:107DFF00C003F0010E046E010E056E1B50FCEC3D2E
:107E0F00F0070E146E170E136E6A0EE82EFED713C0
:107E1F002EFCD7142EFAD700D01706020E17601BB0
:107E2F00EF3FF01DEF3FF0F3EF3EF0010E186E182D
:107E3F00C00EF0FF0E0F6E000E106E000E116E01D1
:107E4F000ED3EC3DF0070E146E170E136E6A0EE88C
:107E5F002EFED7132EFCD7142EFAD700D0010E0CFE
:107E6F006E080EB8EC3DF0182A080E186442EF3F6A
:107E7F00F044EF3FF01FEF3FF0010E196E080E0EAA
:107E8F006EFF0E0F6E000E106E000E116E19500960
:107E9F0008D3EC3DF0070E146E170E136E6A0EE842
:107EAF002EFED7132EFCD7142EFAD700D0010E0CAE
:107EBF006E080EB8EC3DF0192A080E19646AEF3FF0
:107ECF00F06CEF3FF046EF3FF0000E156E000E0224
:107EDF006E000E036E030E046E000E056EFF0EFC99
:107EEF00EC3DF02C0E026E790E036E020E046E0046
:107EFF000E056E850EFCEC3DF0000E026E000E03BB
:107F0F006E030E046E010E056EFF0EFCEC3DF00DC0
:107F1F000E146E2D0E136ED80EE82EFED7132EFCF8
:107F2F00D7142EFAD7000E026E000E036E030E0446
:107F3F006E000E056EFF0EFCEC3DF0000E026E00A3
:107F4F000E036E020E046E000E056E000EFCEC3D6D
:107F5F00F0000E026E000E036E030E046E010E058E
:107F6F006EFF0EFCEC3DF00D0E146E2D0E136ED841
:107F7F000EE82EFED7132EFCD7142EFAD7152A0390
:107F8F000E1564CDEF3FF0CFEF3FF06EEF3FF01BDC
:107F9F0050D8B4D5EF3FF0D7EF3FF0DEEF3FF00012
:107FAF000E1B6E1C68000E1A6E94EF3EF01C50D81C
:107FBF00B4E4EF3FF0E6EF3FF0EDEF3FF0000E1BC4
:107FCF006E000E1C6E1A6894EF3EF01A50D8B4F380
:107FDF00EF3FF0F5EF3FF0FCEF3FF01B68000E1C9A
:107FEF006E000E1A6E94EF3EF094EF3EF000EF002D
:017FFF00F091
:020000040020DA
:08000000FFFFFFFFFFFFFFFF00
:020000040030CA
:0E000000040E1F1EFF8181FF0FC00FE00F4096
:00000001FF
